:020000040800F2
:10000000300E0020910100082B3A00088F2E0008C6
:10001000293A0008AD070008B545000800000000B7
:10002000000000000000000000000000213F000868
:10003000450A0008000000009F3D0008793F0008C5
:10004000AB010008AB010008AB010008AB010008E0
:10005000AB010008AB010008AB010008AB010008D0
:10006000AB010008AB010008AB010008AB010008C0
:10007000AB010008AB010008AB010008AB010008B0
:10008000AB010008AB010008AB010008AB010008A0
:10009000AB010008AB010008AB010008AB01000890
:1000A000AB010008AB010008AB010008AB01000880
:1000B000AB010008F93F0008AB010008AB010008E4
:1000C000AB010008AB010008AB010008AB01000860
:1000D000AB010008AB010008AB010008A94500080E
:1000E000490A0008AB010008AB01000800F002F863
:1000F00000F03FF80AA090E8000C82448344AAF183
:100100000107DA4501D100F034F8AFF2090EBAE880
:100110000F0013F0010F18BFFB1A43F0010318473B
:10012000B8920000D8920000103A24BF78C878C175
:10013000FAD8520724BF30C830C144BF04680C60ED
:10014000704700000023002400250026103A28BF35
:1001500078C1FBD8520728BF30C148BF0B60704739
:10016000642900F09B80002070471FB51FBD10B5AB
:1001700010BD00F053FA1146FFF7F7FF05F042FDFE
:1001800000F071FA03B4FFF7F2FF03BC04F088FB40
:100190000948804709480047FEE7FEE7FEE7FEE71B
:1001A000FEE7FEE7FEE7FEE7FEE7FEE70448054957
:1001B000054A064B70470000F53F0008ED000008B7
:1001C00030080020300E0020300A0020300A0020C5
:1001D000704710B54C1084EA530404D54042C1F175
:1001E000000138BF491E1B4204D55242C3F100032F
:1001F00038BF5B1E00F0EDF814F0804F04D0404291
:10020000C1F1000138BF491E14F0004F04D0524222
:10021000C3F1000338BF5B1E10BD00000FB40449DA
:1002200010B503AA029800F0A5F910BC5DF814FB04
:10023000D00000202DE9F0410E4604460020206247
:100240002046E168884730B3252805D0D4E901214C
:100250009047206A401CF2E7E16820460027884763
:10026000050018D0A5F14100192802D820354FF417
:1002700000673246294620462760FFF771FF40B1EC
:10028000012804D0F61D26F007060836D8E7361DEB
:10029000D6E72846DAE7206ABDE8F0812DE9F0418B
:1002A0000646002410687529314616A510D0AFF314
:1002B0000080002802DA404213A507E031688A076F
:1002C00001D512A502E0490704D511A5012401E0DA
:1002D000AFF3008000210A2206F1240709E0B0FBF9
:1002E000F2FCB0FBF2F302FB1C00303078541846ED
:1002F000491C0028F3D123462A463046BDE8F04188
:1003000000F0DEB8000000002D0000002B0000000F
:100310002000000040EA010310B59B070FD1042A1A
:100320000DD310C808C9121F9C42F8D020BA19BAC0
:10033000884201D9012010BD4FF0FF3010BD1AB125
:10034000D30703D0521C07E0002010BD10F8013B7A
:1003500011F8014B1B1B07D110F8013B11F8014BA1
:100360001B1B01D1921EF1D1184610BD02F0FF03F4
:1003700043EA032242EA024200F010B94FF00002C1
:1003800000B5134694469646203922BFA0E80C508B
:10039000A0E80C50B1F12001BFF4F7AF090728BF66
:1003A000A0E80C5048BF0CC05DF804EB890028BFE2
:1003B00040F8042B08BF704748BF20F8022B11F00B
:1003C000804F18BF00F8012B704770477047704787
:1003D000704753EA020C00F069802DE9F04B4FF0B2
:1003E0000006002B1FBFB3FA83F503FA05F424FAC5
:1003F00005F65E4012BF1643B2FA82F502FA05F422
:10040000C5F120051EBF22FA05FC44EA0C04203584
:1004100056EA044C4FEA144418BF641C4FF000081D
:100420004FF00009904271EB030C39D3002919BF3A
:10043000B1FA81F701FA07F6B0FA80F700FA07F689
:10044000C7F120071EBF20FA07FC46EA0C0620373A
:10045000B6FBF4FCA7EB0507103F07F01F0BCBF131
:1004600020060CFA0BFB2CFA06F644BFB346002616
:10047000202FA4BF5E464FF0000B5BEA060C08BFBE
:100480004FF0010B19EB0B09ABFB027C48EB0608A4
:10049000C01B06FB02CC0BFB03CC71EB0C01C1E7CC
:1004A0000B46024641464846BDE8F08B13B54FF077
:1004B00000004FF00001AFF30080BDE81C40704722
:1004C0002DE9F0470D4699469246044600F124086E
:1004D0000168880604D5E06921F01001216000E080
:1004E0000120A84201DD471B00E00027A1697A191D
:1004F00002EB0900081AA0612078C00602D4204649
:10050000AFF30080002608E0D4E901211AF80600C4
:100510009047206A401C761C20624E45F4DB207810
:10052000C0060AD52046AFF3008006E0D4E90121D9
:1005300030209047206A401C2062381EA7F1010736
:10054000F4DC07E0D4E9012118F805009047206A9F
:10055000401C2062281EA5F10105F3DC2046AFF304
:1005600000802078000602D50220BDE8F087012037
:10057000FBE70000074B70B50D467B4400F033F8F5
:100580000446284600F042F810B14FF0FF3070BD2D
:10059000204670BD4F5000004FF000020429C0F00B
:1005A000128010F0030C3FF4EBAECCF1040CBCF164
:1005B000020F18BF00F8012BA8BF20F8022BA1EBF7
:1005C0000C01FFF7DDBE5FEAC17C24BF00F8012B00
:1005D00000F8012B48BF00F8012B704701694A1C45
:1005E00002610878704700B58FB0CDE90131002174
:1005F000059105497944CDE9031011466846FFF796
:1006000019FE0FB000BD0000E5FFFFFF007B00F00A
:100610008000704700487047D00700207546FFF7FC
:10062000F9FFAE4605006946534620F007008546AF
:1006300018B020B5FFF7BAFDBDE820404FF0000626
:100640004FF000074FF000084FF0000B21F00701BA
:10065000AC46ACE8C009ACE8C009ACE8C009ACE8FD
:10066000C0098D46704710B50446AFF300802046A0
:10067000BDE81040FFF786BD70B50446006881688C
:10068000C943C90717D1816821F00101816001F0D8
:1006900011F805460AE000BF01F00CF8401B0228E3
:1006A00004D920688068C043C00706D020688068ED
:1006B000C043C007F0D0002070BDA06A40F0100019
:1006C000A062E06A40F00100E062012070BD00001D
:1006D000F8B500260446009600688168C943C9073A
:1006E0002DD0816841F001018160164816490068EB
:1006F000B0FBF1F000E0401E00900028FBD100F0BC
:10070000D9FF054616E000BF00F0D4FF401B0228C9
:1007100010D920688068C043C0070BD0A06A40F0A1
:100720001000A062E06A40F00100E06284F82460FA
:100730000120F8BD20688068C043C007E4D10020D4
:10074000F8BD0000D800002040420F0070B50D4EEB
:1007500080F0004581F00040716807F079F80A499F
:1007600006F04CFF04460949306806F047FF294669
:1007700007F06EF8214607F041F9BDE8704006F039
:10078000FFBF0000B00100200000C8420000C8C246
:10079000054802210171012141710021817180F818
:1007A000281080F829107047C8050020FEE70000D7
:1007B00030B5164A0546164B5079002420B301285F
:1007C00023D10A2D21DA084606F01AF8D96908441F
:1007D000C11FD861AD2903D282F8284082F8294090
:1007E000A0F1B5050121B32D03D282F8291082F8BA
:1007F0002840A0F26915B32D03D282F8294082F86F
:100800002810B0F5077F00DDDC6130BDC805002091
:1008100000000020F8B5374F002601200096B8717F
:1008200002466B467521682005F034F932A0FFF7C7
:10083000F5FC9DF8000068280CD0BFF34F8F3748B7
:100840000168374A01F4E06111430160BFF34F8F43
:1008500000BFFDE705F0D8FA002848D1782005F060
:1008600049FF10B924A0FFF7D9FC782005F0FEF964
:1008700010B92CA0FFF7D2FCC82005F0FBFE10B980
:1008800032A0FFF7CBFC04F0EFFB10B939A0FFF763
:10089000C5FC4548044605F05FF90546E01C05F037
:1008A0005BF945EAC005A01D05F056F945EA801040
:1008B00080B204F0E7FC10B93CA0FFF7AFFC40F2B7
:1008C000731004F0A9FA10B942A0FFF7A7FCC820E2
:1008D00004F040FC10B949A0FFF7A0FC06F008F9AD
:1008E000012005F0EDFD10B94DA0FFF797FCBE719A
:1008F000F8BD0000C80500206D70755F7365745FFA
:1009000073656E736F7220636F6D706C65746520B4
:100910002E2E2E2E2E2E0D0A000000000CED00E0D3
:100920000400FA056D70755F636F6E6669677572B6
:10093000655F6669666F20636F6D706C65746520B6
:100940002E2E2E2E2E2E0D0A000000006D70755FCB
:100950007365745F73616D706C655F72617465203F
:10096000636F6D706C657465202E2E2E2E2E2E0DED
:100970000A000000646D705F6C6F61645F6D6F747E
:10098000696F6E5F6472697665725F6669726D77B2
:1009900061726520636F6D706C657465202E2E2EFC
:1009A0002E2E2E0D0A00000078000020646D705F6E
:1009B0007365745F6F7269656E746174696F6E20C0
:1009C000636F6D706C657465202E2E2E2E2E2E0D8D
:1009D0000A000000646D705F656E61626C655F6641
:1009E00065617475726520636F6D706C65746520E8
:1009F0002E2E2E2E2E2E0D0A00000000646D705F2C
:100A00007365745F6669666F5F7261746520636F9A
:100A10006D706C657465202E2E2E2E2E2E0D0A0004
:100A20006D70755F7365745F646D705F737461740E
:100A30006520636F6D706C657465202E2E2E2E2ED2
:100A40002E0D0A00704700000348D0F830014FF423
:100A5000805000F02DBD00000000214272B6FEE77C
:100A60002DE9F84F4421D02002F012FA0446432128
:100A7000D02002F00DFA04EB002006F0D5FE064669
:100A80004621D02002F004FA04464521D02002F08D
:100A9000FFF904EB002006F0C7FE00904821D020AB
:100AA00002F0F6F904464721D02002F0F1F904EBF8
:100AB000002006F0B9FE05463C21D02002F0E8F9FE
:100AC00004463B21D02002F0E3F904EB002006F0BD
:100AD000ABFE83463E21D02002F0DAF904463D21E8
:100AE000D02002F0D5F904EB002006F09DFE8246EE
:100AF0004021D02002F0CCF904463F21D02002F062
:100B0000C7F904EB002006F08FFE4FF08E47044635
:100B10004FF08F48BE4204DD4146304606F06EFF7E
:100B200006460098B84203DD414606F067FF009094
:100B3000BD4204DD4146284606F060FF05465846A2
:100B4000BB4503DD414606F059FF83465046BA4592
:100B500003DD414606F052FF8246BC4204DD4146B9
:100B6000204606F04BFF04462E4F86F00040F86109
:100B7000204606F0AFFC80468946504606F0AAFCA7
:100B800042464B4603F0DEFF0022274B06F0AEFA4A
:100B9000264A274B06F0F8F806F014F88246584625
:100BA00006F098FC42464B4603F0CCFF00221E4B59
:100BB00006F09CFA1D4A1E4B06F0E6F806F002F815
:100BC0008146304606F086FCDFF868B04FF06636A6
:100BD00032465B4606F0D8F805F0F4FF80460098F0
:100BE00006F078FC32465B4606F0CEF805F0EAFFE8
:100BF00006464146504602F00BFBDFF83C8080F091
:100C000000414846C8F80010314602F0ADFB0B49E0
:100C100080F000400860D8F800003D62FC62B861D6
:100C2000BDE8F88FC805002000806640F1D4C853A5
:100C3000FB2109406666304064000020600000200F
:100C40002DE9F05F8B4606F026FA274C002223465A
:100C500006F04CFA6FF001052A4606F076FF234EA7
:100C60000022334606F090F8214F00223B4606F062
:100C70008BF805F0A7FF06F02DFCDFF87880DFF891
:100C800078A04246534606F031FADFF87090002211
:100C90004B4606F02BFA05F095FF194908605846B7
:100CA00006F0F9F90022234606F020FA2A4606F05B
:100CB0004CFF0022334606F067F800223B4606F060
:100CC00063F805F07FFF06F005FC4246534606F048
:100CD0000DFA00224B4606F009FA05F073FF0949A8
:100CE0000860BDE8F09F00000000694000003E4041
:100CF00000002A40F1D4C853FB21094000C05040F5
:100D0000840000208800002010B5114800F06EFA21
:100D10000A210F4800F0CCF90D4800F00BF980B221
:100D200006F0D0F94FF066320A4B06F0DFF90022E8
:100D3000094B06F0DBF90022084B06F0D7F96FF0FB
:100D40000B0206F002FFBDE8104006F075B9000086
:100D5000F805002066660A40000026400000594061
:100D6000F8B500250446009590F82400012808D025
:100D7000012084F824002046FFF77EFC060002D004
:100D800053E00220F8BDA06A20F4885040F0020031
:100D9000A062022000F040FD26490968B1FBF0F096
:100DA000400000E0401E00900028FBD12046FFF7E5
:100DB0008FFC2068816841F00801816000F07AFCB6
:100DC000074608E000F076FCC01B0A2803D920681B
:100DD0008068000715D4206880680007F2D4206876
:100DE000816841F00401816000F064FC074612E074
:100DF00000F060FCC01B0A280DD9206880684007FD
:100E000009D5A06A20F0020040F01000A06284F82A
:100E100024500120F8BD206880684007E8D4A06A0B
:100E200020F0020040F00100A06284F82450304617
:100E3000F8BD0000D8000020F8B50024009490F818
:100E400024202546012A12D0012280F824204A6855
:100E50001F23072A0DD20668776B521E02EB82020F
:100E600093409F430B6893401F43776319E0022030
:100E7000F8BD06680D2A0AD2376BD21F02EB820238
:100E800093409F430B6893401F43376309E0F76A21
:100E90000D3A02EB820293409F430B6893401F433D
:100EA000F7620A68072306680A2A0AD3F7680A3A2B
:100EB00002EB420293409F438B6893401F43F760CD
:100EC00008E0376902EB420293409F438B689340EE
:100ED0001F4337610A68102A01D0112A20D1124B12
:100EE00002689A4217D193681B0219D4936843F49D
:100EF000000393600968102912D10C490C4A096853
:100F0000B1FBF2F101EB8101490000E0491E0091C3
:100F10000029FBD104E0816A41F0200181620124B3
:100F200080F824502046F8BD00240140D80000205D
:100F300040420F000068C06C704700002DE9F0418E
:100F40004FF0000704003D467ED0A06A002628B975
:100F5000E66284F82460204600F07EF82046FFF721
:100F60008BFBA16A01F01001014304D0A06A40F09C
:100F70001000A06268E0A16A21F4885141F00201EA
:100F8000A1626268E169237B0A4347EA43010A439D
:100F9000A1684FF48077B94208D0012906D000211A
:100FA00094F814C0BCF1010F02D00AE03946F7E70B
:100FB000F3B1A36A43F02003A362E36A43F00103A1
:100FC000E3622368D3F804C02CF4694C4CEA010CAA
:100FD000C3F804C023689968DFF870C001EA0C0107
:100FE00011439960A168B9420BD0012909D00CE0E6
:100FF000DFF85CC0A3690CEB43330B4343F400619F
:10100000DFE7218A0D05A5F580152168CB6A23F459
:1010100070032B43CB62216889680E4B19409142C3
:1010200008D1E662A16A21F0020141F00101A1624A
:10103000BDE8F081A06A20F0020040F01000A0623C
:10104000E06A40F00100E0620120F1E7FDF7E1FF16
:1010500000E0FFFFFE0E1FFF00B585B000210091EC
:1010600001910291039100680E49884218D10E48FF
:10107000816941F400718161816901F40071049119
:10108000816941F0040181618069694600F00400D2
:1010900004904020009003200190044800F014FACE
:1010A00005B000BD002401400010024000080140CE
:1010B0002DE9F84300270D460446009700F0FAFAA0
:1010C000804620688168C90508D5A06A40F02000E4
:1010D000A06284F824700120BDE8F8834168C90546
:1010E00003D4C06A10F4700F2AD0022000F094FBE1
:1010F0003B490968B1FBF0F62068036939490B42A6
:101100004FEA61014FEAA1121FD1C3684FEA611C87
:1011100013EA0C0F19D103690B4225D1C0681042A4
:1011200022D1142023E0681C0AD02DB100F0C2FAAD
:10113000A0EB0800A84203D920680068800725D5E5
:10114000206800688007EED52DE003690B4202D1CC
:10115000C168114206D0026923490A4206D1C0681B
:10116000084203D1542002E0292000E0FC2046433D
:10117000009816E0681C11D02DB100F09BFAA0EB8E
:101180000800A8420AD90098B04207D2A06A40F0ED
:101190000400A06284F8247003209DE70098401C9E
:1011A0000090B042E6D321686FF012000860A06A98
:1011B00040F40070A06220688068C0F342400728B5
:1011C0000CD1207B50B9A06A20F48070A062A06A84
:1011D000C00403D4A06A40F00100A06200207BE7B5
:1011E000D8000020244992244992240070B5044676
:1011F00090F8240001280DD0012084F82400204616
:10120000FFF766FA02004FF0000005D084F82400D2
:10121000104670BD022070BDA16A40F201239943BF
:1012200041F48071A1621F4D23681F49AB4218D160
:101230000E6816F4702F14D0A66A46F48016A662C3
:101240000E68760505D5A66A26F4005646F4805643
:10125000A662A66AF6040AD5E66A26F00606E662E3
:1012600006E0A66A26F48016A6625E68E9E7E062F8
:1012700084F824006FF00200186020688368C3F3CC
:101280004243072B05D1A84208D1096811F4702FF9
:1012900004D0816841F480118160B9E7816841F42C
:1012A000A001F9E7002801400424014010B590F89E
:1012B00021100022022905D00421816380F820201A
:1012C000012010BD01680B6823F00E030B6001685C
:1012D0000B6823F001030B6090F84030C46B0121D0
:1012E00001FA03F3636080F8211080F82020104693
:1012F00010BD000010B590F821100024022903D081
:101300000421816301243DE001680A6822F00E0295
:101310000A6001680A6822F001020A601A4A01683C
:10132000914201D1012121E0174A1432914201D1A9
:1013300010211BE0144A2832914201D1891515E091
:10134000114A3C32914201D189140FE00E4A5032C9
:10135000914202D14FF4803108E00B4A643291424D
:1013600002D14FF4801101E04FF08071064A083A33
:101370005160012180F82110002180F82010416B7C
:1013800001B18847204610BD080002402DE9F04712
:10139000B0F5805F31D1434E3078E0B1002030703D
:1013A000FFF75EFB022002F0A1FDC0F1000904205E
:1013B00002F09CFD4042804601464846FFF740FC53
:1013C00030780025384C012807D002F06BFD94F8E6
:1013D000280098B118E00120E1E7FFF795FC3061A3
:1013E0007169491C7161B26964291044B06155D1B9
:1013F00090FBF1F06061B56175614FE094F82900F0
:1014000030B9642002F076F894F82800012803D05F
:1014100094F82900012802D1002002F06BF802F0B4
:101420004FF8D4E90601FFF791F9074641464846CF
:1014300003F0C2F80646206A02F048FFB9190F18F7
:10144000081A1A4BC4E902705E421A463146384601
:1014500002F09EFCA0601A463146E06802F098FC5B
:10146000E06043464A46A169E06A02F099FC08B18F
:101470000120607142464946A06902F0E1FC00B1DA
:10148000657141464846FFF793F9D4E9051002F02B
:1014900073FF18B9D4E9020102F044FD0020BDE851
:1014A000F087000000000020C80500200CE5FFFFC9
:1014B000044910B50A68024202D00860FFF766FFCF
:1014C00010BD0000140401402DE9F84FDFF8B89179
:1014D000002409F1040A0AF1040B23460F270BF13B
:1014E000040EC9E00125A5402A40AA427DD1674EDD
:1014F000D1F804C0ACEB0608B44532D014DCBCF122
:10150000030F3AD009DCBCF1000F2AD0BCF1010F67
:101510001CD0BCF1020F31D11DE0BCF1110F17D06E
:10152000BCF1120F2AD119E0B8F5881F19D006DCDA
:10153000B8F5803F15D0B8F5801F1FD111E0B8F580
:10154000001F0ED0B8F5041F18D10AE0CB6815E0D3
:10155000CB681B1D12E0CB6808330FE0CB680C335F
:101560000CE08B682BB1012B4FF0080303D04561D1
:1015700004E0042302E0056100E00023FF2A01D813
:10158000064601E000F104064FEA840501D9A5F101
:101590002005D6F8008007FA05FC28EA0C0803FAB3
:1015A00005F548EA0508C6F800804D68ED0062D5EB
:1015B000374DAE6946F00106AE61AD6924F0030611
:1015C00005F001050095334D06EB050CDCF80850DD
:1015D000A607360F07FA06F825EA0805DFF8B880EF
:1015E000404503D14FF0000817E044E0DFF8AC803D
:1015F000404502D14FF001080FE0DFF8A4804045DC
:1016000002D14FF0020808E0DFF89880404502D18F
:101610004FF0030801E04FF0040808FA06F848EA22
:101620000508CCF808804D68D9F80060ED034D46F8
:1016300001D5164300E096432E604D68DAF800604D
:10164000AD03554601D5164300E096432E604D6824
:10165000DBF80060ED025D4601D5164300E09643DD
:101660002E604D68DEF80060AD02754601D5164368
:1016700000E096432E60641C0D682A46E5407FF426
:1016800031AFBDE8F88F00000004014000001110E8
:10169000001002400000014000080140000C014021
:1016A00000100140001401400AB1016170470904B3
:1016B000FBE700000148806870470000DC00002064
:1016C000024881680278114481607047DC00002084
:1016D000074810B5016841F010010160032000F0D7
:1016E00089F8032000F006F800F024F8002010BD6F
:1016F0000020024070B50D4D04464FF47A712878F1
:10170000B1FBF0F00A490968B1FBF0F000F0DAFB38
:1017100048B9102C07D200222146501E00F04AF88A
:1017200000206C6070BD012070BD0000DC00002056
:10173000D80000200E4808B5816941F0010181619F
:10174000816901F001010091C16941F08051C161DD
:10175000C06900F080500090052000F04BF805486B
:10176000416821F0E06141F00071416008BD000076
:10177000001002400000014000280DDB00F01F02B5
:10178000012191404009800000F1E020C0F8801163
:10179000BFF34F8FBFF36F8F7047002809DB00F056
:1017A0001F02012191404009800000F1E020C0F8B3
:1017B00000117047F0B40E4B1B680C46C3F30223B4
:1017C000C3F10705042D00D90425191D072901D2ED
:1017D000002300E0DB1E012606FA05F1491E214028
:1017E00099409E40761E16403143F0BC02F0E6BFA1
:1017F0000CED00E0064900F0070208684FF6FF0311
:10180000184040EA0220034A104308607047000075
:101810000CED00E00000FA0510B529A401461DCC2E
:1018200086B08DE81D002AA02A4C00680490002094
:10183000012923D002293AD010291DD161682268DC
:10184000D20119D5C1F38342C9031DF8020009D59D
:10185000616804AAC1F34041515C1F4AB2FBF1F137
:10186000484301E01D4948436168490204D44000EF
:101870005FF00301B0FBF1F006B010BD226AC2F3C5
:101880000121012903D1920701D5C803F4E70229F8
:1018900005D1626A920702D549F64040ECE7032978
:1018A000EAD121688903E7D54FF22440E4E700F04C
:1018B00033F96168C1F38131491C4900DAE700005E
:1018C00002030405060708090A0B0C0D0E0F101081
:1018D000010200000010024000127A0000093D00E1
:1018E0002DE9F84305460078354CC00754D0E0692F
:1018F0000026C00008D4E06940F08050E061E06953
:10190000012600F0805000902E480168C90512D4CD
:101910000168804641F480710160FFF7CBFE074605
:1019200005E000BFFFF7C6FEC01B642823D8D8F827
:101930000000C005F6D5206A10F4407021D0A988B7
:1019400001F4407181421CD0206A1F49012220F419
:1019500040700A6000220A602062C00711D0FFF7C1
:10196000A9FE074641F2883808E000BFFFF7A2FE53
:10197000C11B414502D90320BDE8F883206A8007D6
:10198000F4D5206A696820F44070084320621EB1D3
:10199000E06920F08050E0612878800705D5606814
:1019A000A96820F44040084360602878C00605D547
:1019B0006068E96820F48000084360600020DBE78D
:1019C0000010024000700040400442422DE9F04700
:1019D0000F46050061D0434E306800F00700B84262
:1019E00009D2306820F0070038433060306800F0DA
:1019F0000700B84251D128683B4C810712D54007F7
:101A000003D5606840F4E06060602878000703D583
:101A1000606840F4605060606068A96820F0F00081
:101A2000084360602878C00728D06868012810D073
:101A30002168022810D0890700292EDA616821F078
:101A4000030101436160FFF735FE804641F28839AA
:101A50000DE021688903EFE78901EDE7FFF72AFE32
:101A6000A0EB0801494502D90320BDE8F087606872
:101A7000696800F00C00B0EB810FEFD1306800F026
:101A80000700B8420BD9306820F0070038433060B7
:101A9000306800F00700B84201D00120E5E728785F
:101AA000400705D56068E96820F4E060084360609D
:101AB0002878000706D56068296920F4605040EA5C
:101AC000C100606000F038F86168084AC1F3031192
:101AD000515CC8400649086006480068FFF70AFEE6
:101AE0000020C2E70020024000100240CE92000811
:101AF000D8000020E000002004480549006849683B
:101B0000044AC1F30221515CC8407047D80000204C
:101B100000100240DE920008044805490068496848
:101B2000044AC1F3C221515CC8407047D80000206C
:101B300000100240DE92000812A185B00FC98DE8A6
:101B40000F0014A0144A006804905168134801F073
:101B50000C03042B10D0082B0ED1C1F38343C9030F
:101B60001DF803000AD5516804AAC1F34041515C35
:101B70000A4A5043B0FBF1F005B0704708494843AA
:101B8000FAE7000002030405060708090A0B0C0D1A
:101B90000E0F1010010200000010024000127A0027
:101BA00000093D002DE9F84F040070D02078C04DA9
:101BB000C00749D06868C0F38100012807D0686871
:101BC000C0F38100022809D16868C00306D52868DF
:101BD000800339D560680028E7D035E06068B0F54B
:101BE000803F0BD010B1B0F5A02F11D0286820F4A1
:101BF00080302860286820F4802002E0286840F4C3
:101C000080302860606890B1FFF754FD06460AE016
:101C1000286840F480202860F0E700BFFFF74AFD05
:101C2000801B642873D828688003F7D50CE0FFF781
:101C300041FD064605E000BFFFF73CFD801B642820
:101C4000F0D828688003F7D420789A4E80074FF0A8
:101C500001094FF0000839D5686810F00C0F07D063
:101C60006868C0F38100022809D16868C00306D4FF
:101C70002868800714D52069012808D110E0206960
:101C8000B0B1C6F80090FFF715FD074605E00AE180
:101C9000FFF710FDC01B0228C4D828688007F7D5BD
:101CA0002868616920F0F80040EAC10028600DE072
:101CB000C6F80080FFF7FEFC074604E0FFF7FAFCD9
:101CC000C01B022823D828688007F7D42078000793
:101CD0002CD57948A169D9B1C0F80090FFF7EAFC8A
:101CE000074604E0FFF7E6FCC01B02280FD8686A2D
:101CF0008007F7D571484FF4FA510068B0FBF1F056
:101D0000009000BF0098411E0091FAD20EE080E0E2
:101D1000C0F80080FFF7CEFC074604E0FFF7CAFCDE
:101D2000C01B022875D8686A8007F7D4207840075E
:101D300060D5E8690027C00008D4E86940F0805009
:101D4000E861E869012700F0805000905C48016874
:101D5000C90513D40168834641F480710160FFF71F
:101D6000A9FC824606E000BFFFF7A4FCA0EB0A0036
:101D700064284ED8DBF80000C005F5D5E0680128DE
:101D80000AD008B1052813D0286A20F00100286283
:101D9000286A20F0040002E0286A40F0010028626E
:101DA000E06841F2883B98B1FFF784FC82460BE083
:101DB000286A40F004002862EEE700BFFFF77AFCD3
:101DC000A0EB0A0159455AD8286A8007F6D50CE0DD
:101DD000FFF770FC824605E0FFF76CFCA0EB0A0100
:101DE00059454CD8286A8007F6D41FB1E86920F01D
:101DF0008050E861E06988B36968C1F38101022914
:101E000044D00228C6F8608004D0FFF753FC044693
:101E100038E034E0FFF74EFC074604E0FFF74AFCE9
:101E2000C01B02282BD828688001F7D4206AB0F59F
:101E3000803F05D16868A16820F4003008436860DD
:101E4000D4E908010843696821F474110843686003
:101E5000C6F86090FFF72EFC044606E025E000BFC0
:101E6000FFF728FC001B022809D828688001F7D555
:101E70001BE000BFFFF71EFC001B022802D9032055
:101E8000BDE8F88F28688001F4D40EE00128F7D06F
:101E90006868226A00F48031914204D1616A00F4DA
:101EA0007010884201D00120EAE70020E8E7000036
:101EB000001002400000424280044242D80000204C
:101EC0000070004010B5401EB0F1807F01D30120AA
:101ED00010BD4FF0E02460610F21601702F06EFC2E
:101EE0000020A06107202061002010BD70477047CE
:101EF00010B590F83C20012A22D0012280F83C2025
:101F0000CA688C6822F4407222434C6822F48062D2
:101F100022430C6822F4006222430C6922F48052AE
:101F200022434C6922F400522243C969002322F45F
:101F300080420A4301684A6480F83C30002010BDAA
:101F4000022010BD70B590F83C20012A26D0012453
:101F500080F83C40022280F83D2003685A689D6862
:101F600022F070060A6832435A600D4B02689A42AA
:101F700008D0B2F1804F05D00A4B9A4202D00A4BEA
:101F80009A4204D1496825F080031943916080F892
:101F90003D40002180F83C10084670BD022070BD15
:101FA000002C0140000400400008004010B504006F
:101FB00003D094F83D0010B107E0012010BD0020CF
:101FC00084F83C00204600F01FF8022084F83D0011
:101FD000211D206802F016F8012084F8460084F8DC
:101FE0003E0084F83F0084F8400084F8410084F803
:101FF000420084F8430084F8440084F8450084F8E3
:102000003D00002010BD000000B585B0002100910A
:10201000019102910391184A01681848914209D12F
:10202000816941F400618161806900F4006004907D
:1020300005B000BD124A9142FAD1C16941F00201D6
:10204000C161C16901F002010491816941F0080197
:1020500081618069694600F00800049001200090C9
:102060000848FFF731FA012211461D20FFF7A2FBB5
:102070001D20FFF792FBDBE7002C0140001002401F
:1020800000040040000C014090F83D10012901D0EF
:1020900001207047022180F83D100168CA6842F0B3
:1020A0000102CA6000680B49884208D0B0F1804F35
:1020B00005D00949884202D00849884204D1816884
:1020C00001F00701062903D0016841F00101016018
:1020D00000207047002C0140000400400008004030
:1020E00070B5044690F83C00012817D0012584F80B
:1020F0003C50022084F83D002068826822F077027C
:1021000022F47F4282600868502830D00DDC2028FD
:102110004DD005DC98B310283BD148E0022070BDBB
:10212000302844D0402834D139E0602828D07028A5
:1021300006D0B0F5805F2CD0B0F5005F29D10AE061
:10214000CB68D1E90121206801F09FFF20688168F8
:1021500041F0770109E0CB68D1E90121206801F065
:1021600094FF2068816841F48041816011E0CA6871
:102170004968206802F03EF85021206807E016E028
:10218000CA684968206802F073F86021206801F08D
:1021900086FF84F83D50002084F83C0070BDCA687A
:1021A0004968206802F026F840212068EFE722689D
:1021B00001461046EBE72DE9F0410D46040003D03F
:1021C00094F83D0018B108E00120BDE8F08100203E
:1021D00084F83C00204600F041F8022084F83D00DD
:1021E0002068816844F2070291438160211D2068C4
:1021F00001F008FF226890689169166A2B68AF6940
:10220000034340F20330814341EA0721A868EF69A4
:1022100008434FF6FC418843E96840EA0720014340
:1022200028692F6A000140EA0730084369686D6930
:1022300026F0220646EA051529439360226890613C
:1022400054F8460B0162012004F81F09E07520765E
:10225000E0762077A0750020B7E7000000B585B0D4
:102260000021009101910291039101681A48B1F196
:10227000804F1BD0194A914216D1C16941F0040127
:10228000C161C16901F004010491816941F0080153
:1022900081618069694600F008000490C0200090C8
:1022A0000F4800BFFFF710F905B000BDC16941F04C
:1022B0000101C161C16901F001010491816941F02D
:1022C000040181618069694600F0040004900320E4
:1022D00000900448E6E700000010024000080040BB
:1022E000000C01400008014070B590F83E600446C3
:1022F00090F83F5090F8423090F84320022021B1EE
:1023000004290ED0012E1BD114E0012E18D1012B6F
:1023100016D184F83E0084F8420001220021206892
:1023200020E0012D0CD1012A0AD184F83F0084F865
:10233000430014E0012D03D1012B01D1012A01D06A
:10234000012070BD84F83E0084F83F0084F842000C
:1023500084F8430001220021206801F089FE012257
:102360000421206801F084FE2068016841F0010129
:102370000160002070BD00002DE9F041254CA04215
:1023800045D1254D2888010641D4410641F2111658
:1023900040F244471BD540F08000288008212046A9
:1023A00000F038FB68802068016A314206D1016A7A
:1023B000394203D1016821F0010101602068016AFE
:1023C00021F4007101622068016A01621BE00021B2
:1023D0006980402028802068026A324206D1026A61
:1023E0003A4203D1026822F0010202602068416291
:1023F0002068016A21F4007101622068016A41F4D9
:10240000007101622068016841F001010160BDE8CE
:10241000F0810000B8060020CC0000202DE9F0413A
:10242000054690F83C000C46012836D0012085F87E
:102430003C008AB3042A42D02868082A51D0D4E943
:102440000023E168066A26F480560662C669076AB8
:1024500026F4407646EA03234FF6FF7606EA01317A
:1024600023F4704319434FF4005627F4005306EA4F
:1024700002321A43C16102622868C16921F44061D5
:10248000C1612868C169A26841EA0221C1610020D6
:1024900085F83C00BDE8F08101E00220FAE7D4E9CC
:1024A0000012E368286801F0B7FE2868816921F00E
:1024B0000C01816128688169A26811430FE0D4E9A9
:1024C0000012E368286801F0E5FE2868816921F4BC
:1024D0004061816128688169A26841EA02218161C5
:1024E000D5E7D4E90027267B016A21F480710162D7
:1024F000C169036A21F00301394321F0F007310774
:102500004FF4007647EA116123F4007306EA0222D1
:102510001A43C16102622868C16921F00C01C161DE
:102520002868C169A2681143B0E710B5040003D060
:1025300094F83D0010B107E0012010BD002084F8A0
:102540003C00204600F01EF8022084F83D00211DCA
:10255000206801F057FD012084F8460084F83E0011
:1025600084F83F0084F8400084F8410084F8420079
:1025700084F8430084F8440084F8450084F83D0062
:10258000002010BD7047000010B5044651B1042969
:102590000DD0082910D094F8410094F84520012866
:1025A00011D10EE094F83E0094F84220F7E794F839
:1025B0003F0094F84320F2E794F8400094F8442058
:1025C000EDE7012A01D0012010BD022051B10429FC
:1025D00011D0082918D084F8410084F845000C294E
:1025E0001BD136E084F83E0084F842002068C268BF
:1025F00042F0020210E084F83F0084F843002068B3
:10260000C26842F0040207E084F8400084F8440005
:102610002068C26842F00802C2600122206801F00E
:1026200027FD0E492068884208D0B0F1804F05D0C0
:102630000B49884202D00B49884204D1816801F0DD
:102640000701062903D0016841F001010160002063
:1026500010BD2068C26842F01002DDE7002C014086
:10266000000400400008004070B50446006801699D
:102670004FF00005C943890715D4C168C9438907CC
:1026800011D4E91E0161012020772068806980074C
:10269000204602D0FFF770FE04E000F0BFF82046AD
:1026A00000F04EF9257720680169C943490717D41E
:1026B000C168C943490713D46FF0040101610220C6
:1026C00020772068806910F4407F204602D0FFF711
:1026D00053FE04E000F0A2F8204600F031F925771F
:1026E00020680169C943090716D4C168C9430907AD
:1026F00012D46FF008010161042020772068C069BE
:102700008007204602D0FFF737FE04E000F086F88D
:10271000204600F015F9257720680169C943C906EC
:1027200017D4C168C943C90613D46FF01001016101
:10273000082020772068C06910F4407F204602D02E
:10274000FFF71AFE04E000F069F8204600F0F8F800
:10275000257720680169C943C90708D1C168C94301
:10276000C90704D1891E0161204600F039F92068AB
:102770000169C943090609D4C168C943090605D4DA
:102780006FF0800101612046FFF7B0FB206801690E
:10279000C943490609D4C168C943490605D46FF045
:1027A00040010161204600F04AF920680169C943EF
:1027B00089060BD4C168C943890607D46FF020018C
:1027C00001612046BDE87040FFF791BB70BD00007D
:1027D00000B585B00021009101910291039100683C
:1027E0000B49884212D10B48816941F00401816193
:1027F0008069694600F0040004904FF41060009076
:102800000220019003900448FEF75EFE05B000BD73
:10281000002C01400010024000080140704770B5D4
:10282000044690F83C000D4601280AD0012084F8A7
:102830003C0042B1042A18D0082A2AD00C2A4DD1D3
:1028400039E0022070BD206801F032FC2068816907
:1028500041F0080181612068816921F004018161F2
:10286000206881692A69114311E0206801F048FC61
:102870002068816941F4006181612068816921F4E7
:1028800080618161206881692A6941EA0221816150
:1028900024E0206801F060FC2068C16941F0080173
:1028A000C1612068C16921F00401C1612068C1696A
:1028B0002A69114311E0206801F07AFC2068C1699F
:1028C00041F40061C1612068C16921F48061C16186
:1028D0002068C1692A6941EA0221C161002084F8A7
:1028E0003C0070BD10B5040003D094F83D0010B159
:1028F00007E0012010BD002084F83C00204600F0D5
:102900001EF8022084F83D00211D206801F07AFBAA
:10291000012084F8460084F83E0084F83F0084F8E3
:10292000400084F8410084F8420084F8430084F8B1
:10293000440084F8450084F83D00002010BD704735
:102940007047000010B50446022249B104290ED098
:10295000082913D094F84100012816D0012010BD99
:1029600094F83E000128F9D184F83E200FE094F855
:102970003F000128F2D184F83F2008E094F840009D
:102980000128EBD184F8402001E084F841200122A5
:10299000206801F06DFB0F492068884203D1426C2A
:1029A00042F4004242642068884208D0B0F1804F6F
:1029B00005D00949884202D00849884204D181687B
:1029C00001F00701062903D0016841F0010101600F
:1029D000002010BD002C0140000400400008004011
:1029E0000A4988420AD10A4801880A0606D44A06DA
:1029F00004D5CA43920602D0491C0180704741F0B9
:102A0000800101804FF6FF7141807047B8060020B9
:102A1000CC0000200246002041B1042909D0082939
:102A20000AD00C2901D11068006C70471068406B07
:102A300070471068806B70471068C06B70477047B4
:102A400070477047F8B5026804461068D16853694A
:102A500010F00F0F4FF0000554D003F0010601F401
:102A6000907737435FD0C20705D0CA0503D5226CE3
:102A700042F001022264420705D5DA0703D0226C36
:102A800042F002022264820705D5DA0703D0226CE5
:102A900042F004022264020707D501F0200232430B
:102AA00003D0226C42F008022264226C002A35D046
:102AB000800604D5880602D5204601F0A1FC2068D6
:102AC0004069216CC0F3801001F0080101432046E9
:102AD00025D001F07DFC2068416949061BD541697C
:102AE00021F040014161A06BA8B158494163A06B3E
:102AF000FEF700FC002811D0A06B416B01B0BDE8CF
:102B0000F040084783060ED58B060CD52046BDE85D
:102B1000F84001F075BC2046FFF793FFF8BDFFF7C2
:102B200090FF2564F8BD266B2023012E52D1C606E6
:102B300050D5CE064ED510685068009050694006BA
:102B40002AD5A16B086840680004000CEAD0A68D65
:102B50008642E7D9E0858869202818D0D06820F41B
:102B60008070D0602068416921F0010141612068D6
:102B7000416921F04001416184F83E3025632068BD
:102B8000C16821F01001C160A06BFEF78FFBA08D22
:102B9000E18D401A81B219E0A08DE18D401A81B219
:102BA000E08D0028BED00029BCD0D06820F4907001
:102BB000D0602068426922F00102426184F83E3010
:102BC00025632068C26822F01002C2602046FFF729
:102BD00037FFF8BD05062BD50D0629D594F83D0025
:102BE0002128F6D1A068B0F5805F01D12069B0B18D
:102BF000206A411C2162216800784860E08C401EF8
:102C00000004000CE084E4D12068C16821F0800158
:102C1000C1602068C16841F04001C160F8BD206A10
:102C20000088C0F308005060206A801C2062E5E73D
:102C30004006F3D54806F1D5D168204621F0400181
:102C4000D16084F83D3000F021F9F8BDC14300089F
:102C500070B5040004D094F83D00002510B106E0E2
:102C6000012070BD84F83C50204600F023F8242059
:102C700084F83D002068C16821F40051C1602046FD
:102C800001F01AFC2068016921F49041016120687B
:102C9000416921F02A0141612068C16841F4005175
:102CA000C1602564202084F83D0084F83E000020A7
:102CB00070BD000070B586B00024009401940294A9
:102CC000039403682B482A4E022103220515B342C0
:102CD00021D1836943F480438361836903F4804392
:102CE0000493836943F0040383618069224E00F0FA
:102CF000040004900802CDE90001039269463046C1
:102D0000FEF7E2FBCDE90054694630460294FEF737
:102D1000DBFB06B070BD194EB342FAD1C36943F470
:102D20008023C361C36903F480230493836943F060
:102D3000080383618069CDE9005100F00800CDE906
:102D400003200F4D69462846FEF7BEFBE814CDE987
:102D50000004694628460294FEF7B6FB01220021D2
:102D60002720FEF727FD2720FEF717FDD1E70000FB
:102D700000380140001002400008014000480040B7
:102D8000000C014090F83E30202B0ED159B152B1C9
:102D900090F83C30012B08D0012380F83C30002310
:102DA000036301F0E5BB012070470220704700007B
:102DB00030B40068314988425DD13148314A01233D
:102DC0000178416041700020592916D0582917D048
:102DD0000A291ADD5A292CD041293CD045292DD069
:102DE00042292FD043292DD044292BD046292ED03B
:102DF00047292CD048292AD003E00224147100E08E
:102E00001371107050709070D0700A2929DA137104
:102E100079B101291FD0052910D002291DD003291D
:102E20001BD0042919D0062921D007291FD0082931
:102E30001DD01070507003E0D07012E0107053700D
:102E40009070F9E7107050709070D370DDE71070DB
:102E500050709370D8E71370ECE71070507090705A
:102E6000D37030BC012206490748FFF78BBF1070B2
:102E700050709370E0E730BC70470000004800409D
:102E8000C4000020C80500208C0700207047FEE722
:102E900070B50D46044600F0C1F8204600F08EF8EB
:102EA00000F004F9284600F089F800F0FFF800F07F
:102EB000B5F8641CE0B200F081F800F0F7F80020EB
:102EC00000F046F8044600F0D1F8204670BD00003E
:102ED00070B50D4C0025C4F8A0510C48016821F0D4
:102EE000F0010160016841F030010160C4F8A451B3
:102EF000012004F5D07401F057FF0120206001F09B
:102F000053FF256070BD000000802142040C014089
:102F100070B50D4C0025C4F8A0510C48016821F093
:102F2000F0010160016841F0300101600126C4F840
:102F3000A461304604F5D07401F036FF266001200C
:102F400001F032FF256070BD00802142040C014079
:102F50002DE9F047814617480024016821F0F0016F
:102F60000160016841F080010160134E254627464B
:102F70004FF00108C6F8A071022001F015FFC6F855
:102F8000A0816006040ED6F8240108B1641CE4B2E6
:102F9000022001F009FF6D1CEDB2082DEAD3B9F152
:102FA000000F02D0FFF794FF01E0FFF7B1FF2046CA
:102FB000BDE8F087040C0140008021422DE9F0417A
:102FC00006461448016821F0F0010160016841F0F3
:102FD00030010160104C0027C4F8A0713D464FF04D
:102FE0000108F009C4F8A4017006060E012001F0E2
:102FF000DBFEC4F8A081012001F0D6FEC4F8A07168
:10300000012001F0D1FE6D1CEDB2082DE9D3BDE821
:10301000F0810000040C01400080214270B511488D
:10302000016821F0F0010160016841F030010160A8
:103030000D4C0120C4F8A401D4F8241149B1C4F8FE
:10304000A00101F0B1FE0025C4F8A451D4F8240178
:1030500008B1002070BD012001F0A6FEC4F8A05107
:10306000012070BD040C0140008021420D4810B5C4
:10307000016821F0F0010160016841F03001016058
:10308000094C0020C4F8A001C4F8A401012004F5F3
:10309000D07401F089FE012020606060BDE810401E
:1030A00001F082BE040C01400080214270B513483B
:1030B0000024016821F0F0010160016841F0800105
:1030C00001600F4D0126C5F8A461304601F06CFE89
:1030D000C5F8A06107E0641CE4B2322C03D9FFF705
:1030E000C5FF002070BD012001F05EFED5F824016F
:1030F0000028F0D1C5F8A001012070BD040C0140EA
:103100000080214210B51446FFF7C2FE2070012056
:1031100010BDF8B515461C460E4607466A46FFF731
:10312000F1FF01209DF80010A8400CB1084301E018
:1031300021EA0000C2B28DF800203146384600F086
:103140002BF8F8BD2DE9F84314461D460F4680467E
:103150006A46089EFFF7D6FF00281BD0611CFF209F
:10316000C4F1080200FA01F12A44521ED040014382
:10317000C5F108008640F2B2C4F10700C2409DF8D4
:103180000000084010438DF80000C2B239464046A6
:1031900000F002F8BDE8F88307B502AB012200F0A9
:1031A00001F80EBD2DE9F0411E461546884607463A
:1031B0000024FFF733FF3846FFF700FFFFF776FFE5
:1031C0004046FFF7FBFEFFF771FF06E0305DFFF7BB
:1031D000F5FEFFF76BFF641CE4B2AC42F6D3FFF7D9
:1031E00045FF0120BDE8F08141060748826942F0B1
:1031F000010282610548426822F0E0624260426852
:103200000A43426070470000001002400000014085
:103210002DE9F34F534C8DB008466269099211466F
:1032200004F0ECFBA76D394604F012FB216804F0B2
:103230007DF90890E66C6068314604F0DFFBD4F855
:103240005080414604F0DAFBA063616D079181F084
:103250000045E5632564A16806916164394604F080
:10326000F7FAA16C04F062F983463946284604F067
:10327000EFFA0546314604F059F9824628464146A0
:1032800004F054F981463946069804F0E1FA0799AA
:1032900004F04CF9804608990D9804F0AFFB0746FE
:1032A000A061207C04F0C0FA59460B9004F0D0FADB
:1032B0000546E06149460B9804F0CAFA206207907F
:1032C00029460B9804F0C4FAE16804F02FF9064689
:1032D00060623146284604F091F9A06202903146BE
:1032E000079804F08BF9E0620190256351460B9832
:1032F00004F0AEFA064660632946029804F0A8FA84
:10330000594604F071FBA0643146029804F0A0FA1B
:10331000514604F069FBE0642946019804F098FAEC
:10332000494604F061FB20653146019804F090FAAB
:10333000414604F059FB60653946029804F088FA6A
:10334000089904F0F3F8054620603946019804F026
:103350007FFA099904F0EAF860610FB02846BDE8E9
:10336000F08F0000E80000202DE9F34F534C8DB0A2
:103370000846226F5C341146099204F03FFBA76DAA
:10338000394604F065FA216804F0D0F80890E66C3C
:103390006068314604F032FBD4F85080414604F0B6
:1033A0002DFBA063616D079181F00045E563256405
:1033B000A16806916164394604F04AFAA16C04F0F0
:1033C000B5F883463946284604F042FA05463146A8
:1033D00004F0ACF882462846414604F0A7F881463E
:1033E0003946069804F034FA079904F09FF88046AD
:1033F00008990D9804F002FB0746A061207C04F0B8
:1034000013FA59460B9004F023FA0546E061494649
:103410000B9804F01DFA2062079029460B9804F0DF
:1034200017FAE16804F082F80646606231462846E1
:1034300004F0E4F8A06202903146079804F0DEF848
:10344000E0620190256351460B9804F001FA0646AC
:1034500060632946029804F0FBF9594604F0C4FA67
:10346000A0643146029804F0F3F9514604F0BCFA26
:10347000E0642946019804F0EBF9494604F0B4FAF7
:1034800020653146019804F0E3F9414604F0ACFAB6
:1034900060653946029804F0DBF9089904F046F8B3
:1034A000054620603946019804F0D2F9099904F0E4
:1034B0003DF860610FB02846BDE8F08FE8000020BD
:1034C00010B5322001F0FEFB094C012803D16079D0
:1034D00050B10020607100F025F8012803D1A079D7
:1034E00020B10020A07110BD0120F3E70120F9E711
:1034F000C805002010B5094A002360B108490C68CE
:10350000641C0C60844205D1D2F89001C043C2F81B
:1035100090010B6010BDC2F8903110BD0000214237
:10352000C00000200C48002142891AB90B4BD3F887
:1035300014310BB101810AE003895B1C9BB203814A
:10354000C82B04D901224281018110467047012A0B
:1035500000D1418100207047B400002000002142CA
:1035600010B5022000F011F8032000F020F8002030
:1035700000F014F8002000F02FF8002000F026F8EA
:10358000BDE81040002000F01BB808B503230090F0
:1035900002226B21D020FFF7D5FD08BD08B502231C
:1035A000009004221C21D020FFF7CCFD08BD08B5F7
:1035B0000223009004221B21D020FFF7C3FD08BD89
:1035C000034601223721D020FFF7A3BD0346052281
:1035D0006A21D020FFF79DBD034606226B21D02033
:1035E000FFF797BD3EB50021124800910191104AA6
:1035F0000291026081600173017501244FF4602221
:103600000461C2614160FDF799FC08B1FDF726FA3B
:103610000620CDE900040720029069460548FDF721
:103620000BFC08B1FDF71AFA0248FDF799FB3EBD05
:1036300000240140F80500202DE9F04385B0002565
:103640003A480095019502950395816941F0200162
:103650008161816901F020010491816941F00401D7
:103660008161816901F004010491816941F00801DF
:1036700081618069DFF8B88000F0080004900122C1
:1036800010214046FEF710F8DFF8A89000224FF214
:103690003A014846FEF708F84FF400470022394641
:1036A0004046FEF701F801224FF440714846FDF70D
:1036B000FBFF1020012403268DE871006946404677
:1036C000FDF702FF2020CDE900056946029440463F
:1036D000FDF7FAFE4FF202308DE871006946484668
:1036E000FDF7F2FE200300901348CDE9010469467E
:1036F0004046FDF7E9FE0097CDE9014569464046A1
:103700000394FDF7E1FE38208DE831006946484614
:103710000394FDF7D9FE012202212820FEF74AF882
:103720002820FEF729F805B0BDE8F083001002401C
:1037300000080140000C01400000211010B596B0B7
:1037400000240F9410941194129413941C21684631
:103750001494FCF713FE202107A8FCF70FFE304855
:103760002E49C0E9001441F61F41C0E90241802101
:103770000461C0E90541FEF719FC08B1FDF76EF9D7
:103780004FF480500F900FA92548FEF7A9FC08B10F
:10379000FDF764F92248FFF7A5F808B1FDF75EF9D7
:1037A000139413A91E481494FEF7CCFB08B1FDF73F
:1037B00055F96020CDE90004029403940494059423
:1037C0000022694616480694FFF729F808B1FDF76C
:1037D00045F90C2269461248FFF721F808B1FDF7B8
:1037E0003DF90794089409944FF400500A94CDE9E8
:1037F0000B4007A90A480E94FEF77AFB08B1FDF7C3
:103800002DF900210648FFF79DF80C210448FFF729
:1038100099F80348FEF7DCFF16B010BD002C0140FC
:103820002806002010B58CB024216846FCF7A6FDC0
:103830000024174809944FF080410A94C0E900140D
:103840004FF6FF71C0E90241046184610320CDE9B4
:1038500000040120CDE902040A210491CDE90540CC
:10386000CDE9074169460A48FEF7A5FC08B1FDF716
:10387000F5F8099409A906480A94FEF763FB08B114
:10388000FDF7ECF83C210248FEF72EFD0CB010BD10
:103890007006002010B58AB00024264804940594D0
:1038A0000694079408940994009401940294204982
:1038B000039401604721C0E901144FF6FF71C0E98C
:1038C000031480218161FEF771FB08B1FDF7C6F892
:1038D0004FF48050049004A91648FEF701FC08B18B
:1038E000FDF7BCF81348FEF720FE08B1FDF7B6F867
:1038F000089408A90F480994FEF724FB08B1FDF7C6
:10390000ADF80120CDE9004002940822694609483B
:103910000394FEF783FD08B1FDF7A0F808210548E0
:10392000FEF732FE0348FEF7AFFB0AB010BD000001
:1039300000040040B806002010B58CB02421684671
:10394000FCF71CFD00241848099416490A94C0E9A4
:1039500000144FF6FF71C0E9024104618461032045
:10396000CDE900040120CDE902040A210491CDE94A
:103970000540CDE9074169460B48FEF71CFC08B13C
:10398000FDF76CF8099409A907480A94FEF7DAFADA
:1039900008B1FDF763F83C210348FEF7A5FC0CB025
:1039A00010BD000000080040000700200C4810B5C2
:1039B0000A4901604FF4E1314160002181600C222D
:1039C000C160C0E904128161C161FFF741F90028BB
:1039D00003D0BDE81040FDF741B810BD00380140EC
:1039E000480700200E4810B50C4901604FF41651ED
:1039F0004160002181600C22C160C0E90412816134
:103A0000C161FFF725F908B1FDF728F8BDE81040BE
:103A1000012204490248FFF7B5B900000048004000
:103A20008C070020C4000020FEE7FEE710B4002150
:103A3000084B0A465FF0000003EBC004401CC0B214
:103A400062548028F8D3491CC9B20829F2D310BCAB
:103A500000F096B8C801002010B57F2816D83F297D
:103A600014D80723A3EBD10301F00701C1F1070428
:103A70000121A140064CDBB204EBC000002AC25C6D
:103A8000C9B201D00A4300E08A43C25410BD00000D
:103A9000C801002010B5394C0020C4F88C01642006
:103AA00004F5C67401F066F9012020600021AE2003
:103AB00000F030F90021D52000F02CF90021502031
:103AC00000F028F90021A82000F024F900213F206F
:103AD00000F020F90021D32000F01CF90021084655
:103AE00000F018F90021402000F014F900218D2089
:103AF00000F010F90021142000F00CF90021202022
:103B000000F008F90021022000F004F90021A120B2
:103B100000F000F90021C02000F0FCF80021DA20BC
:103B200000F0F8F80021122000F0F4F800218120C4
:103B300000F0F0F80021EF2000F0ECF80021D9208F
:103B400000F0E8F80021F12000F0E4F80021DB208B
:103B500000F0E0F80021302000F0DCF80021A42083
:103B600000F0D8F80021A62000F0D4F80021AF2002
:103B700000F0D0F8BDE81040FFF758BF00802142A8
:103B800070B5114E002400BF04F1B000C0B2002196
:103B900000F0C0F80021084600F0BCF80021102019
:103BA00000F0B8F85FF0000506EBC5000121005DEC
:103BB00000F0B0F86D1CEDB2802DF5D3641CE4B2BA
:103BC000082CE1D370BD0000C80100202DE9FF4F93
:103BD000203A1F460C46894602F0FF0A0025DDF810
:103BE00034B032E00C2F09D01A4901EB0A104FF023
:103BF0000008465D300607D55A4609E016490AEB2B
:103C00004A0001EB8000F2E7BBF1000F12D0002266
:103C100021460098FFF720FF7006641C060EE4B2F0
:103C2000A4EB0900B84207D100984C46401CC0B232
:103C3000009008E00122EBE708F1010000F0FF0826
:103C4000B8F1080FD6D36D1CEDB2BD42CAD3BDE8A2
:103C5000FF8F0000DE8C00086A8800082DE9FF4F06
:103C600081B00026DDF838A01D46934681463446D3
:103C70004FF001084FEA5A0727E0281B401EC1B247
:103C80000A2002F0C1FDBBFBF0F00A21B0FBF1F20B
:103C900001FB120026B9691E8C4201DA48B10126E7
:103CA0003030C2B207FB0490C0B25346CDF800805A
:103CB00006E007FB0490C0B253462022CDF80080F6
:103CC0000299FFF783FF641CE4B2AC42D5D305B080
:103CD000BDE8F08FF8B516460D460446012714E0FE
:103CE0007A2C02D900241035EDB23A2D03D90024E4
:103CF0002546FFF79BFE009732780C232946204685
:103D0000FFF764FF0834E4B2761C30780028E7D16E
:103D1000F8BD000070B50F4C0025012211B1C4F8A8
:103D2000BC2101E0C4F8BC510B4B0021C3F89451F5
:103D3000060602D5C3F8902101E0C3F89051C3F8FC
:103D400094214006491C000EC9B20829EED3C4F8DC
:103D5000BC2170BD00002142008021420748064975
:103D6000016007494160074981600749C16007490F
:103D7000016100214161704700C8AF46B0010020D9
:103D80000000D84200007A460000A042004083456F
:103D9000884200DD0846904200DA104670477047BE
:103DA000F0B5234C064600256088A0B9104602F005
:103DB00027FD0746184602F023FD38441E2809DA7D
:103DC000A088401C80B2A0800A2804D9012060800D
:103DD000A58003E0A5806088012813D1E088401CFD
:103DE00080B2E080C82801D9E5806580114886420C
:103DF00008DD1148814205D21048814202DA0220D2
:103E0000608002E0608802280FD12089401C80B2C7
:103E10002081642801D925816580D01802F0F0FC4A
:103E2000462802DD65800120F0BD0020F0BD0000C5
:103E3000000000200020CB460000A0C10000A041EF
:103E4000144B10B55B791BB3134B5C8914B1012C77
:103E50000AD01DE0114CA0421AD2114CA04217DA30
:103E6000B1B9AAB9012058819889401C84B20020B8
:103E70009C81322C01D998815881032908DD032ABD
:103E800006DD282904DA282A02DA5881012010BD2B
:103E9000002010BDC805002000000020000020C147
:103EA0000000204110B50E4C0120C4F884010F2001
:103EB00004F5C27400F078FF0022226009480188EE
:103EC0000B060CD54488890604EB9121AA24614392
:103ED0004FF47A74B1FBF4F1034B5962028010BDC8
:103EE00000802142CC000020C805002000210228CB
:103EF00005D0032809D0042809D0002070474FF0CE
:103F00008042506A516200B27047034A00E0034A9F
:103F10001068116000B2704724040040240800407B
:103F20007047000030B500230124114A002804DD49
:103F3000C2F8B441C2F8B03103E0C2F8B431C2F8FB
:103F4000B04102F05DFC0B4D2860002904DDC2F891
:103F5000BC41C2F8B83103E0C2F8BC31C2F8B84184
:103F6000084602F04DFC03490C39086030BD0000E2
:103F700000802142402C0140FDF7A2BB30B593B038
:103F800028216846FCF7FAF914210AA8FCF7F6F98B
:103F9000002501200F9510951195010412958DE8CB
:103FA000230004904FF4E010CDE908100224079498
:103FB0006846FDF7F7FD08B172B6FEE70AA90F20C3
:103FC00081E831004FF48060CDE90D0502210AA897
:103FD000FDF7FCFC08B172B6FEE74FF4004011900B
:103FE0000F940FA8FDF77CFC002801D072B6FEE705
:103FF00013B030BD704700000148FEF735BB00002C
:10400000B8060020F0B50268164B174C174D4FF05C
:104010008047984205D0B84203D0A04201D0A842C0
:1040200003D122F070064A683243984205D0B84264
:1040300003D0A04201D0A84203D122F44074CA6840
:1040400022434C6922F08002224302608A68C262E5
:104050000A688262984201D10969016301214161C4
:10406000F0BD0000002C01400004004000080040AA
:1040700010B501F01F030121046A99408C430462CA
:10408000016A9A401143016210BD10B5846842EA8A
:10409000032224F47F440A432243826010BD8268D5
:1040A00022F070020A4342F007018160704700006D
:1040B00030B5026A22F001020262026A4368846932
:1040C00024F073050C682C4322F002058A682A4309
:1040D0000A4DA8420BD122F00805CA6823F44073A8
:1040E0002A434D6922F004021D438B692B43436030
:1040F000846149684163026230BD0000002C0140C8
:1041000030B5026A22F010020262026A43688469D2
:104110000D6824F4E64444EA05248D6822F0200268
:1041200042EA05120B4DA8420ED1CD6822F0800262
:1041300042EA05124D6923F4406343EA85038D6921
:1041400022F0400243EA8503436084614968816349
:10415000026230BD002C014030B5026A22F4807248
:104160000262036A4268C46923F4007324F0730591
:104170000C682C438D6843EA05230C4DA8420ED1F0
:10418000CD6823F4006343EA05234D6922F44052CD
:1041900042EA05128D6923F4806342EA0512426007
:1041A000C4614968C163036230BD0000002C014056
:1041B00030B5026A22F480520262046A4268C3691E
:1041C0000D6823F4E64343EA05238D6824F4005484
:1041D00044EA0534064DA84204D14D6922F48042D8
:1041E00042EA85124260C36149680164046230BDDD
:1041F000002C014010B5036A046A24F00104046233
:10420000846924F0F00444EA021423F00A020A4309
:104210008461026210BD000070B5046A24F00104DC
:1042200004628469056A0F4EB04208D0B0F1804F35
:1042300005D00D4EB04202D00C4EB04203D124F056
:104240000304144301E044F001041A0724F0F004CD
:1042500044EA126225F00A0301F00A01194382615F
:10426000016270BD002C01400004004000080040C5
:1042700010B5036A23F0100303628369046A23F410
:10428000704343EA023224F0A00343EA0111826141
:10429000016210BD30B5046A24F010040462846920
:1042A000056A24F4407444EA022222F470444FF672
:1042B000FF7202EA03322243A02425F0A00304EA9D
:1042C000011119438261016230BD00002DE9F04700
:1042D000264C8246244F2046254D2178466AD7F841
:1042E00010902879012927D0A97801292CD0E978C4
:1042F00001292FD00020E0612878012831D068788A
:1043000001282ED04FF000084146504603F0A0FA95
:10431000184E314603F072F905464946E06903F04C
:1043200097FA314603F06AF9294603F0FFF8206254
:10433000BDE8F04703F024BA03F076FA01463046B0
:1043400003F05CF9E061DFE703F06EFA014686F006
:10435000004003E003F068FA0146304603F04EF9EE
:10436000C9E7D7F81480CFE7B00100208C00002007
:10437000C80500200000C8420D4A90420AD80D4AE4
:10438000904207DC0C484079012803D040F25640A7
:1043900081420BDA094A01200021C2F8B811C2F8A3
:1043A000BC11C2F8B411C2F8B011704700207047B8
:1043B000000020C200002042C805002000802142E9
:1043C00010B5406A0021C185C184FEF73AFB10BDDB
:1043D0000168CA6822F49072CA6001684A6922F0D2
:1043E00001024A61016B012904D10168CA6822F007
:1043F0001002CA60202180F83E100021016370473E
:1044000008B590F83E10222901D0022008BD82682C
:104410004FF480539A4201D1016921B1816A9A42D5
:104420001BD04AB10AE00268816A5268C2F30802EE
:104430000A80816A891C08E0026972B102685268C8
:1044400002F07F020A70816A491C8162C18D491E97
:104450000904090CC18503D019E002685268F1E72C
:104460000168CA6822F02002CA600168CA6822F4A2
:104470008072CA6001684A6922F001024A61202103
:1044800080F83E10016B012903D0FEF791FC00205B
:1044900008BD002101630168CA6822F01002CA60E9
:1044A00001680A68D20602D50A6849680091818DC0
:1044B000FEF7C6FAEBE7000070B504460068016934
:1044C000E26821F44051114301612169A068084369
:1044D000616908432168CA6841F20C639A43024348
:1044E000CA6020684169A26921F4407111434161A9
:1044F0001E492068884202D1FDF70EFB01E0FDF75E
:10450000FBFA00EBC00101EB00126068642180003F
:10451000B2FBF0F3B3FBF1F36FF018067343B2FB99
:10452000F0F5B2FBF0F605EB8305322303EB05153E
:10453000B5FBF1F5B6FBF1F605F0F00505EB061558
:10454000B2FBF0F6B2FBF0F0B0FBF1F06FF0180246
:10455000504306EB800003EB0010B0FBF1F0216844
:1045600000F00F002844886070BD00000038014052
:1045700081628285C28500210164222280F83E206A
:1045800080F83C100168CA6842F48072CA60016811
:104590004A6942F001024A610068C16841F02001A5
:1045A000C1600020704700000148FEF74BBA0000D0
:1045B0008C070020FEE700002DE9F34F684D694CA1
:1045C000284695F8288090F8299081B0B8F1010F1D
:1045D0001AD0B9F1010F17D06348A061604829785B
:1045E0004FF0000A0079009001290FD06878012867
:1045F00011D0C4F810A05A48AB46B8F1010F877823
:10460000C678456A12D032E05848E6E703F00CF964
:104610000146A06906E0009803F006F90146A0698A
:1046200080F0004002F0EAFF2061E4E7A5F1C90054
:10463000B0F5957F0BD8012F09D0012E07D0009837
:1046400003F0F2F80146A06902F0D8FF2061C82DFE
:104650000DD2012F0BD0012E09D0009803F0E4F801
:104660000146A06980F0004002F0C8FF2061B9F166
:10467000010F1AD1009803F0D7F88146A069494686
:10468000804602F0BBFF206184F800A0B5F5E17F11
:104690000BD2012F09D0012E07D00120207088F005
:1046A0000040494602F0AAFF2061DDE9010108440B
:1046B000404203F0A1F80546A060E06802F00AFF5E
:1046C0002B4A2C4B02F012FD02F07CFA07462846DA
:1046D00002F000FF284A294B02F008FD05460E466D
:1046E000384602F0F7FE2A46334602F09DFA02F001
:1046F00069FA05460146E060606902F017FF21692A
:1047000002F014FF1E496061884202DC1D498842A4
:1047100000D961611C4E6069F16803F099F81B498A
:1047200002F06CFF07462846B16803F091F818497B
:1047300002F064FF394603F061F95D466060D5E937
:104740000510FFF719FE012802D06879012801D170
:10475000C4F814A06068BDE8FE4F03F011B8000073
:10476000C80500208C000020000048420000F041F5
:1047700085EB51B81E85EB3FEC51B81E85EBC13F70
:1047800000401C4600401CC6B00100200000C8428A
:104790000000C8C2490050EAC12018BF04204A0DD9
:1047A00018BF40F0010040F2FF72B2EB515F08BF4A
:1047B00040F00200012808BF052070470907090ED4
:1047C000002804DB00F1E02080F80014704700F0BE
:1047D0000F0000F1E02080F8141D70472DE9F04132
:1047E0004F1E00EBC7010446D1E9000115461E46E5
:1047F00037F006020DD02A46334602F077FC7F1EC2
:1048000004EBC703D3E9002302F00EFA37F00602E7
:10481000F1D1022F25D0042F13D0062F18BFBDE8E9
:10482000F0812A46334602F061FCD4E90A2302F003
:10483000FBF92A46334602F059FCD4E9082302F07A
:10484000F3F92A46334602F051FCD4E9062302F07C
:10485000EBF92A46334602F049FCD4E9042302F07E
:10486000E3F92A46334602F041FCD4E9022302F080
:10487000DBF92A46334602F039FCD4E90023BDE8CF
:10488000F04102F0D1B9012203F05FB902F0CCB9D6
:10489000024A0020110703F058B9000001FDFFFF94
:1048A000704700002DE9FE4F07460E46002568467A
:1048B00000F0A6FE00246FF00F0AE8464FF0010951
:1048C00057F8240056F82410401A00D5404202F050
:1048D00093FF514603F067F958F8241011F0FF4F89
:1048E0000BD002F08BFE4FF07E5103F087F80A499F
:1048F00020F00040884205DC07E0084908440849E8
:10490000884202D309FA04F00543641C032CD7DB68
:104910002846BDE8FE8F0000295C0F3E666666C132
:104920009A99D9002DE9F84F04460D4621F0004030
:1049300000917349814211DC7249884201DC06D141
:104940002CB120462946BDE8F84FFFF79CBF6E48C2
:10495000002DCCBF6D496E49BDE8F88F6D4981428D
:1049600011DD6D498142D8BF4FF0FF366DDD204625
:104970002946FFF70FFF042808BFFFF789FF2046ED
:104980002946BDE8F88F6549654F25F0004581420D
:1049900033DD6449814219DD002632464FF0804301
:1049A0002046294602F040F980468A4601222046E8
:1049B000294603F0CAF800223B4602F0A1FC424619
:1049C000534602F0E1F904460D463EE0012600227E
:1049D000BA463B462046294602F026F980460F4655
:1049E000002253462046294602F08AFC42463B46B6
:1049F00002F0CAF904460D4627E04B4981421BDD0F
:104A0000DFF828A10226002253462046294602F05C
:104A10006DFB00223B4602F007F980460F4600225C
:104A200053462046294602F06BFC42463B4602F0C4
:104A3000ABF904460D4608E0032622462B4600202B
:104A40003B4902F0A1F904460D4622462B4610468A
:104A5000194602F04BFB8B46824602460B4602F09B
:104A600045FB07460246334888460B4606217844F4
:104A7000FFF7B4FE52465B4602F038FB82462E48F2
:104A80008B463A46434605217844FFF7A7FE3A464F
:104A9000434602F02BFB02460B46002E5046594679
:104AA0000CDA02F0C1F822462B4602F01FFB01B0DF
:104AB00022462B46BDE8F04F02F016BC02F0B4F8D7
:104AC00022462B4602F012FB1C4A7A4402EBC60334
:104AD000D3E9002302F014FC22462B4602F010FC1E
:104AE000174A7A4402EBC603D3E9002302F0FCFB29
:104AF000009A002AB8BF81F00041BDE8F88F00009D
:104B0000000010440000F07F182D4454FB21F93FB1
:104B1000FB21F9BF0000DC3F0000203E0000F33F16
:104B20000000F03F0000E63F008003400000F83F37
:104B30000000F0BFDE4800009C4800003A4800003A
:104B4000024800002DE9F04D9446CCF1000423F01A
:104B500000464CEA0404524F46EAD4749A4688460A
:104B600021F00042BC4206D8454240EA050442EA30
:104B7000D474BC4204D9BDE8F04D6246FFF786BE4E
:104B8000AAF14055A5F17F6555EA0C040BD002242B
:104B900004EAAA74434DDFF810E144EAD87452EAFB
:104BA000000B04D00CE0BDE8F04DFFF7BBBE002CBD
:104BB00014BF012CBDE8F08D022C30D0032C32D074
:104BC00056EA0C0B0AD0BE4220D1BA4209D126F0D7
:104BD000804622F080423346114617E000291ADB56
:104BE00025E0DFF8C8B0FB44002C04BFDBE900017E
:104BF000BDE8F08D012C02BFDBE9000181F000412E
:104C0000BDE8F08D022C0AD0032C0CD0BA4212D190
:104C1000B8F1000F0BDA23482549BDE8F08D28468E
:104C20002449BDE8F08D28467146BDE8F08D1D4849
:104C30002149BDE8F08D921B12153C2AC4BF1948CA
:104C40001D490EDCBAF1000FBEBF12F13C0F00206F
:104C5000014606DB624602F097F821F00041FFF7BB
:104C600061FE002C08BFBDE8F08D012C04BF81F06F
:104C70000041BDE8F08D114A114B022C07D002F023
:104C80003FFB2A46BDE8F04D0A4B02F039BB02F06B
:104C900037FB2A46BDE8F04D064B02F025BB00006D
:104CA0000000F07F182D4454FB2109C096470000F6
:104CB000FB21F9BFFB210940FB21F93F075C1433BD
:104CC00026A6A13C30B5214BD3F81441204900223F
:104CD00044B1CA80D3F814510C7825434FF0010435
:104CE00004D004E0CC88641CCC80F3E70C704D78D1
:104CF0004DB90D78012D03D18D786D1C8D704C70E0
:104D00008C78022C04D0D3F81431012B04D005E0A8
:104D10008A708A80022030BD0A704A708B78012B1D
:104D200011D18B885B1C9BB28B80834206D9CB88C8
:104D3000834203D28A708A80012030BDCB888342AF
:104D400001D98A708A80002030BD00000000214215
:104D5000B40000204FF0E020016921F0040101615E
:104D600003480921017042F2283141807047000058
:104D7000D40000200B49498848434FF0E0214861A6
:104D800000228A61086940F0010008610869C307D0
:104D900001D0C003FAD5086920F0010008618A61DA
:104DA00070470000D40000200B49097848434FF0B9
:104DB000E021486100228A61086940F00100086131
:104DC0000869C30701D0C003FAD5086920F00100C3
:104DD00008618A6170470000D400002008B560B106
:104DE00020208DF8000028208DF8010030208DF85B
:104DF000020038208DF8030004E0A3220421684655
:104E0000FBF7B4FA6A46042140F69E2001F0CEFC7E
:104E100001F094F908BD00003EB5044602208DF86B
:104E20000000CA208DF80100E3208DF8020009205F
:104E30008DF803006A460421682001F0B7FCA32026
:104E40008DF80000610609D5C0218DF80110C82138
:104E50008DF80210C2218DF8031005E08DF80100D5
:104E60008DF802008DF8030014F4C07F09D0C4212E
:104E70008DF80410CC218DF80510C6218DF8061090
:104E800005E08DF804008DF805008DF806008DF81A
:104E900008008DF807008DF809006A460A2140F6DF
:104EA000A72001F083FCA0074FF0D80503D02020F5
:104EB0008DF8000001E08DF800506A46012140F6AF
:104EC000B62001F073FCA00601D5012000E000200F
:104ED00000F08EF814F4C07F1ED0E0050AD5B22091
:104EE0008DF800008B208DF80100B6208DF80200AF
:104EF0009B2009E0B0208DF8000080208DF8010093
:104F0000B4208DF8020090208DF803006A46042139
:104F100040F6A22001F04AFCE1074FF40B6022D0DA
:104F2000F8218DF800106A46012101F03FFCFA21BA
:104F3000072000F097FA072000F062FA012000F045
:104F40007FFA642000F022FB4FF4FA7000F02EFB91
:104F5000C821254800F01CFA282000F031FA0A2068
:104F600000F03EFA05E08DF800506A46012101F09C
:104F70001DFCA00703D5D9208DF8000001E08DF8B5
:104F800000506A46012140F23D7001F00FFC6007BD
:104F900001D5012000E0002000F048F8E00601D52E
:104FA000012000E00020FFF719FF104D44F0080039
:104FB000688101F0C3F80020A873600601D50620BF
:104FC000A87314F4C07F02D0A87B801DA87314F0CE
:104FD000140F02D0A87B1030A873A00702D0A87BC2
:104FE000001DA87300203EBD09E3CA02A0010020F5
:104FF0000EB54FF4976310B106A107C901E008A2EE
:1050000007CA8DE807006A460921184601F0CEFB61
:105010000EBD0000B8AAB38DB4980D355D00000038
:10502000B8AAAAAAB088C3C5C700000008B560B175
:10503000C0208DF80000C2208DF80100C4208DF83A
:105040000200C6208DF8030004E08B22042168468C
:10505000FBF78CF96A46042140F6982001F0A6FB84
:1050600001F06CF808BD0000C8234FF480620249CB
:1050700040F6F63000F08CBF747C00082DE9FF414B
:10508000044603A800F03AFEBDF80C00410CC3032F
:105090002F48028902F00300550754F8200000D57C
:1050A0004042C2F3C105960654F8255000D56D4222
:1050B000C2F38116D20554F8264000D56442A0FB05
:1050C0000367C21702FB037200FB0120820042EA61
:1050D0009670A5FB0367EA1702FB037205FB01222A
:1050E000950045EA9672A4FB0367E51705FB037379
:1050F00004FB01318B0043EA9671030E8DF80030FA
:10510000030C8DF80130030A8DF802308DF803008E
:10511000100E8DF80400100C8DF80500100A8DF8A3
:105120000600080E8DF80800080C8DF80900080A22
:105130008DF80A008DF807208DF80B106A460C21B7
:105140004FF4257001F032FB04B0BDE8F08100009F
:10515000A001002030B5044613A285B007CA8DE82F
:1051600007004FF0FF35C82C16D8C820B0FBF4F16B
:10517000491E080A8DF80C008DF80D1003AA0221B3
:1051800040F2162001F012FB30B96A460C2140F6BD
:10519000C12001F00BFB10B1284605B030BD054819
:1051A00084810020F9E70000FEF2ABC4AAF1DFDF42
:1051B000BBAFDFDFA0010020F8B53049098901F05D
:1051C000030250F822404A0700D56442C1F3C102ED
:1051D0008B0650F8222000D55242C1F3811350F8BB
:1051E0002330C80500D55B42254984FB014085007A
:1051F00045EA947082FB0142A40F44EA820483FBD7
:105200000121950F45EA8105010E8DF80010010C72
:105210008DF80110010A8DF802108DF803006A461E
:1052200004214FF4747001F0C1FA4FF0FF3688B9D1
:10523000200E8DF80000200C8DF80100200A8DF85A
:1052400002008DF803406A4604214FF4757001F0A6
:10525000ADFA08B13046F8BD280E8DF80000280CD4
:105260008DF80100280A8DF802008DF803506A4677
:1052700004214FF4767001F099FAF8BDA0010020E6
:1052800009E3CA022DE9FF4104463CA004F00303F0
:10529000006802903AA0006803903AA006683AA01D
:1052A000056802A8C15C8DF80010C4F3C101425C1E
:1052B0008DF80120C4F38112805C8DF8020003A8F0
:1052C000C35C8DF80430415C8DF80510805C8DF86E
:1052D00006006A46032140F2264001F067FA4FF0CB
:1052E000FF37E0BB01AA032140F22A4001F05EFA39
:1052F000A8BBCDE9006560070BD59DF8000040F024
:1053000001008DF800009DF8040040F001008DF8C8
:105310000400A0060BD59DF8010040F001008DF8B7
:1053200001009DF8050040F001008DF80500E00542
:105330000BD59DF8020040F001008DF802009DF8A9
:10534000060040F001008DF806006A4603214FF484
:10535000886001F02BFA10B901AA032100E004E0F3
:1053600040F2314001F022FA18B1384604B0BDE8ED
:10537000F081064804810020F8E700004CCD6C0065
:105380000CC92C003656760026466600A001002087
:105390004FF47A7290FBF2F008B54843010E8DF895
:1053A0000010010C8DF80110010A8DF802108DF823
:1053B00003006A4604214FF4AE7001F0F7F908BD0E
:1053C0000521B0FBF1F008B5010A8DF800108DF849
:1053D00001006A4602214FF4AD7001F0E7F908BD03
:1053E0000521B0FBF1F008B5010A8DF800108DF829
:1053F00001006A4602214FF4AC7001F0D7F908BDF4
:1054000008B500218DF80010C10702D030218DF8B9
:105410000010810705D59DF8001041F00C018DF8B2
:105420000010400705D59DF8000040F003008DF8FE
:1054300000006A4601214FF4A47001F0B7F908BDDD
:1054400008B560B1042800D90420401E8DF8000082
:105450006A46012140F24F1001F0A8F908BD012071
:10546000F3E700002DE9FC41054640074FF0FF3609
:105470007CD0B1F5C86F79D8084602F0D5F93E491D
:1054800002F0BCF8074601A800F01AFC9DF80400E1
:10549000022806D004280DD008282ED0102865D167
:1054A00034E00E21384602F07EFB02F085F984B22A
:1054B000324907E00D21384602F075FB02F07CF915
:1054C0002F4984B2384602F0C3F902F075F9210A77
:1054D0008DF8001080B28DF80140010A8DF802109D
:1054E0008DF80300E8076C4620D0224602214FF4D5
:1054F000EA7001F05BF9C8BB11E00C21384602F0FC
:1055000052FB02F059F984B21E49DBE70B21384601
:1055100002F049FB02F050F984B21B49D2E7A21C09
:1055200002214FF4927001F041F9F8B9A8070DD5A6
:105530006A4602214FF4EC7001F038F9B0B9A21CB0
:1055400002214FF4947001F031F978B9680710D551
:105550006A4602214FF4EE7001F028F930B9A21C1E
:1055600002214FF4967001F021F910B13046BDE8E8
:10557000FC810020FBE7000000004843000040469B
:105580000000C045000040450000C0440521B0FBBC
:10559000F1F008B5010A8DF800108DF801006A4697
:1055A00002214FF4EF7001F001F908BD0521B0FBB5
:1055B000F1F008B5010A8DF800108DF801006A4677
:1055C00002214FF4ED7001F0F1F808BD09498A7924
:1055D000C1B23AB1084A13685B06FCD5064A121DEF
:1055E00011607047054A13685B06FCD5034A121D1B
:1055F000F6E70000C80500200038014000480040E0
:105600002DE9FE430646264801AB042240680D21E1
:10561000007800F03FFA10B10720BDE8FE839DF846
:1056200004101C2000EAD1029DF80710DFF87490E6
:10563000C1F301131A438DF800209DF80520C1F332
:10564000810300EAD2021A438DF801209DF806205A
:1056500001F0030100EAD20008430024124F8DF844
:105660000200A0466D46285D10B146F824900AE07D
:1056700046F824800DE000BF56F82400394602F0B9
:10568000E7F846F82400285D401E10F0FF0028557A
:10569000F2D1641CE4B2032CE5D30020BDE7000086
:1056A000200000207B14AE3E1D5A843F2DE9FE4FA2
:1056B00005460120C14E8DF800004FF000088DF81E
:1056C000018030680C461746817C70686B46022268
:1056D000007800F017FA4FF0FF3A00287AD1C8207E
:1056E000FFF748FB8DF8008030686B460122C17BD4
:1056F0007068007800F006FA0028EFD130686B4639
:10570000012241797068007800F0FCF90028E5D1A9
:1057100030686B460122817C7068007800F0F2F9F5
:105720000028DBD130686B460122C17D70680078AB
:1057300000F0E8F90028D1D130686B4601220179E8
:105740007068007800F0DEF90028C7D14FF00C092E
:105750008DF8009030686B460122017970680078FE
:1057600000F0D0F9002835D10F20FFF703FBB06A15
:105770006B460122407A8DF80000306881787068AD
:10578000007800F0BFF9002824D1B06A6B460122EE
:10579000007A8DF80000306841787068007800F079
:1057A000B1F9002873D1B06A807A0FB140F0E000FF
:1057B0008DF8000030686B460122817970680078AE
:1057C00000F0A0F9002862D12FB1B06AC07A40F091
:1057D000E00001E04AE018208DF8000030686B46D8
:1057E0000122C1797068007800F08CF9F0BB17B124
:1057F000C820FFF7BFFA40208DF8000030686B46E4
:10580000012201797068007800F07CF970BB782083
:105810008DF8000030686B4601224179706800788D
:1058200000F070F910BB3220FFF7A4FA8DF8008069
:10583000306847466B46417970680122007800F075
:1058400061F998B931687068B046897A00786B461A
:10585000022200F01FF948B9BDF80000AF6040BA5D
:10586000B0FBF9F06F60C6B22F6000E00FE0A760F8
:1058700067602760002739E0D8F80010D8F80400E6
:105880006B46C97A00780C2200F004F910B150463A
:10589000BDE8FE8FBDF80000236840BA02B2BDF833
:1058A0000200BDF804101A44226040BA626800B2D7
:1058B0001044606049BAA06809B20844A060BDF80D
:1058C00006002B6840BA02B2BDF808001A4440BA7C
:1058D00001B2BDF80A002A606A6840BA11446960E2
:1058E000A96800B208447F1CFFB2A860B742C3D3C6
:1058F00028688322C117090441EA104100040023EB
:10590000FAF767FC32460023FAF763FC2860686800
:105910008322C117090441EA104100040023FAF769
:1059200058FC32460023FAF754FC6860A8688322CA
:10593000C117090441EA104100040023FAF749FCA9
:1059400032460023FAF745FCA86020684FF4006552
:10595000C117090441EA104100042A460023FAF75E
:1059600038FC32460023FAF734FC206060682A468F
:10597000C117090441EA104100040023FAF729FC89
:1059800032460023FAF725FC6060A0682A46C1175A
:10599000090441EA104100040023FAF71AFC3246D8
:1059A0000023FAF716FCA060002802DDA0F5803085
:1059B00001E000F58030A060002069E720000020B1
:1059C0002DE9F84F81462E488846002540686B46F1
:1059D000032200780D2100F05DF810B10720BDE82A
:1059E000F88F9DF80000002400F01F008DF80000E3
:1059F0009DF801006FF00F0B00F01F008DF8010003
:105A00009DF802006E4600F01F008DF802004FF076
:105A1000010A00BF59F8241058F82400081A00D5CC
:105A2000404201F0E9FE594602F0BDF80746305DFC
:105A3000C0B1144802E0144901F00AFF315D491E6B
:105A400011F0FF013155F6D10146384601F0D6FD7F
:105A50004FF07E5101F0D2FF0C4920F00040884207
:105A600005DC07E00A483844B0F1D97F02D90AFAC8
:105A700004F00543641C032CCCDB2846AFE7000090
:105A8000200000200000C84154E3853F295C0F3E00
:105A90000000E0BE2DE9F0411D4614460F460646C3
:105AA000FDF7BCFAB0B17006000EFDF787FAFDF7FE
:105AB000FDFA90B13846FDF781FAFDF7F7FAFDF7E8
:105AC000ADFA012000EB4600C0B2FDF777FAFDF712
:105AD000EDFA0FE00120BDE8F081FDF7C7FAF9E724
